:1001730077656C636F6D65004D5055363035302CA7
:1001830073756363657373004D5055363035302C8A
:050193006661696C00CB
:0F00F000D2A07F017E001200FFD2A17F017E000F
:1000FF00D3EF9400EE940040147D787C00ED1D70DA
:0D010F00011CED4C70F7EF1F70E61E80E341
:01011C0022C0
:0D01FA00D2A01200F9C2A01200FBC2A12287
:0E01EC00C2A01200F9D2A07F017E000200FF27
:02011D00AB072E
:10011F00E4FAC2A11200FBEB5480C4131313540171
:10012F0024FF92A0EB25E0FB1200F90ABA08E3C204
:09013F00A11200FB1200F0C2A1A4
:010148002294
:10014900E4FBD2A07F01FE1200FFE4FA1200F9EBF2
:1001590025E0FFA2A0E4334FFBC2A11200FB0ABABB
:0901690008EA1200F0C2A1AF0384
:01017200226A
:02019800A907B5
:10019A001201FA7FD012011DAF0112011D1201FADC
:0F01AA007FD112011D120149AB071201ECAF0307
:0101B9002223
:1000BD001201BA7FE87E031200FF7BFF7A0179738C
:1000CD001200037FD07E071200FF7F751201987B0F
:1000DD00FFBF68067A01797B80047A01798B120063
:0300ED000380FE8F
:060003008B088A09890A3E
:10000900E4F50CF50D1201D78F0B7FFD120213E4F5
:10001900FF120213E50B2402FF1202137F011202E1
:1000290013E4FF120213E4F50DE50DC3950B501708
:10003900AB08AA09A90A850D82758300120077FF0A
:10004900120213050D80E2750C01E4F50DE50DC3EF
:10005900950B5015AB08AA09A90A850D827583006D
:0E006900120077620C050D80E4AF0C0202134A
:1001BA0053877F75985053890F438920758BFD7536
:0D01CA008DFDC2ABD29CD28ED2AFD2AC2242
:080213008F993099FDC2992278
:03000000020207F2
:0C020700787FE4F6D8FD75810D0200BD83
:10007700BB010CE58229F582E5833AF583E022503E
:1000870006E92582F8E622BBFE06E92582F8E22288
:0D009700E58229F582E5833AF583E49322A2
:1001D700E4FFFE1200A4600C0FEF70010E09E97036
:0501E700F20A80EF2286
:1000A400BB010689828A83E0225002E722BBFE025A
:0900B400E32289828A83E493228D
:00000001FF
