:100E83003F065B4F666D7D077F6F777C395E7971B7
:100E930038733E7600FEFDFBF7CED2BAC3CFF1D353
:0D0EA300D0B5E3CBC0C1CBBEC8BEC8CED217
:100F15004400810000000041008700420085000078
:0D0F2500C103C10441007E0042007F0000B6
:100CB20012067C90000CE0FCA3E0FDA3E0FEA3E0A2
:100CC200FF22FFFBAA06EA3395E0F9F8A3EE33957B
:100CD200E0FDFC0205D1E0FCA3E0FDEC1202B1E470
:100CE200FBFA7980784502020FA804A905AA06FB3F
:100CF200020106FDEDFFEEF0A3EFF022EF2BFFEE77
:100D02003AFEED39FDEC38FC22900038E0FBA3E01E
:0F0D1200FAA3E0F922F582E43400F583E0FF2232
:050FBB00120F4F7F0141
:0D0FC000EFD3940040077E72DEFE1F80F329
:010FCD002201
:100EF700D3EF9400EE940040147D6E7C00ED1D70DE
:0D0F0700011CED4C70F7EF1F70E61E80E33B
:010F140022BA
:05103E00121043D295E1
:0610430000000000002285
:0D101900D29412103EC294121043C29522D0
:0F0FDF00C294121043C29512103ED294021043D6
:0E0FFD00A2029294D295121043C295021043A4
:100F6600E4FFD295121043309409EFC394FA50036C
:050F76000F80F4C2959C
:010F7B002253
:100F3300E4FEEF33929412103EC295121043EF2554
:0C0F4300E0FF0EEEB408EBD294020F6643
:100EB000E4FFFED294121043D295EE25E0FEA294F8
:100EC000E4334EFE121043C2951210430FEFB408E4
:030ED000E7AF0683
:010ED30022FC
:100F4F00AC071210197FD0120F33AF04120F33AF4B
:070F5F0005120F33020FDF42
:020ED400AD0768
:100ED6001210197FD0120F33AF05120F33121019EB
:100EE6007FD1120F33120EB0D202120FFD120FDF96
:010EF60022D9
:100D8E00AC07AA05AD03121019120F33AF02120FE2
:100D9E0033121019EC04FF120F33ED6027120EB050
:100DAE00900009E0FBA3E475F0011205BBA9F0FA6F
:100DBE00EF120554EDB40104D2028002C202120FEA
:070DCE00FD1D80D6020FDFBE
:0A104900D295121043D29402104316
:100E52007F75120ED4EF646860037F0022E4FD7F89
:100E62006B120FBB7F19120FBB7D067F1A120FBBCD
:100E72007D187F1B120FBB7D107F1C120F4F7F014D
:010E8200224D
:100DD5009000097401F0A37400F0A37400F07B0681
:100DE5007D3B7FD0120D8E900000E0FEA3E09000C9
:100DF50088120CF5900002E0FEA3E090008A120C28
:100E0500F5900004E0FEA3E0FDEDFF90008CEEF010
:030E1500A3EFF058
:010E180022B7
:1006880090008AE0FEA3E090008A120CC4C004C067
:1006980005C006C007900088E0FEA3E0900088121D
:1006A8000CC4D003D002D001D000120CFEC004C08C
:1006B80005C006C00790008CE0FEA3E0FFFBAA0679
:1006C800EA3395E0F9F890008C120CCED003D002F2
:1006D800D001D000120CFE90000012067C90008819
:1006E800120CD890000412067C90008A120CD89044
:1006F800000812067C90008C120CD890000C120C8A
:10070800B2120CEBC004C005C006C0079000081266
:100718000CB8120CEBD003D002D001D0001207DBCA
:10072800900004120CB81207B2900010120CB2120A
:100738000CEBC004C005C006C007900004120CB83A
:10074800120CEBD003D002D001D0001207DB9000CE
:1007580008120CB81207B290001412067C7F007EB3
:10076800657DCD7C1D900000E0F8A3E0F9A3E0FAD8
:10077800A3E0FBC312062E40177F007E8C7D867C8B
:1007880047900000E0F8A3A3A3E0D312062E401878
:10079800900010120CB81207CB500B900014120CDA
:0907A800B81207CB4002D322C3B2
:1007B10022120B89E4FBFA793478431201067BD0CB
:1007C1007A0F7949784012020F221202EA1210328E
:1007D100D3EF942DEE6480948022120015120AE169
:0707E10090001C12067C22AF
:100FA700900081EFF0A3EDF0A3EBF090003BE09011
:040FB7000084F022A0
:0C10260090003B7414F0FBFDFF020FA7CC
:0E100B0090003B7410F0FB7D0A7F0F020FA7D0
:0F0FEE0090003B7411F07B107D0E7F13020FA754
:100E1900C2A6C2A7E4F580D2A690007EE0FF248195
:100E2900F582E43400F583E0900E8393F580C2A641
:100E3900D2A7EF900E9893F580C2A790007EE004A8
:080E4900F0C394044002E4F040
:010E5100227E
:100F7C0020B4107F147E00120EF720B40630B4FD9E
:060F8C007F01227F00221C
:100FCE00438920758DFD758BFDD28E759850D2AFED
:010FDE0022F0
:080003008F993099FDC299228A
:0E09FF00900038EBF0A3EAF0A3E9F0A3EDF0CE
:100A0D00E490007CF090003C74FDF090003BE0FD24
:100A1D002403E433FF90003DEFF0ED2403A3F0A396
:100A2D007401F0A3F0E490007DF090007DE0FFC331
:100A3D009405501790007CE0FE743C2F120D17EEBC
:100A4D006F90007CF0A3E004F080DFE490007DF077
:100A5D0090003BE0FC90007DE0FEC39C501D90009B
:100A6D007CE0FD120D0B8E82758300120527FEEDC5
:100A7D006E90007CF0A3E004F080D5ECFF7E007852
:100A8D00417C007D01120D0B12050190007CE0FFF1
:100A9D0090003BE02441F582E43400F583EFF0E46F
:100AAD0090007DF090003BE02406FFE433FE9000C3
:100ABD007DE0FDC39FEE6480F87480985011743C06
:0F0ACD002D120D1712000390007DE004F080D56C
:010ADC0022F7
:100F9200E4900087F0900085F0A3F0C203121026BF
:050FA200D290D2A32251
:03000B0002090ADD
:10090A00C0E0C0F0C083C082C0D075D000C000C0B3
:0D091A0001C002C003C004C005C006C00734
:10092700758CFC758A18120E19900080E004F0701F
:100937000690007FE004F0C3900080E094329000BE
:100947007FE094004007E4F0A3F0120DD5120F7C6E
:10095700BF0105D2040209E4900087E01460201467
:10096700604B24027077B29112068850709000870E
:100977007401F0900085E4F0A3F012100B805EC2C2
:1009870090C2A3900086E004F07006900085E00412
:10099700F0C3900086E094B8900085E0940B403D4A
:1009A7009000877402F0120FEED20380309000851A
:1009B700E0FEA3E0FF7C017DF4120566C3ED94FA27
:1009C700EC94005006C290C2A38004D290D2A390A8
:0D09D7000086E004F07006900085E004F05A
:1009E400D007D006D005D004D003D002D001D00067
:0B09F400D0D0D082D083D0F0D0E03211
:100D210078247C007D017BFF7A0E799C7E007F1404
:100D3100120501120FCE1210497F647E00120EF7C8
:100D4100120E52EF7014C2907FC87E00120EF7D2BD
:100D5100907FC87E00120EF780EC438901758CFCF0
:100D6100758A18D2A9D28CD2AF120F927F647E00FD
:100D7100120EF7300405C204120F923003EEC203C3
:0D0D81007B017A0079247D141209FF80DFC8
:10000E00020356E86480F8E933E83360110460F0C7
:10001E00ED33EC337009E8FCE9FDEAFEEBFF220458
:10002E0060DED3EB9FEA9EE99DE8C2E78CF0C2F753
:10003E0095F0400CE8CCF8E9CDF9EACEFAEBCFFB1F
:10004E0012032185D0F05804700320D5B3E8047054
:10005E00075002B2D502036092D5EC0460F7E4CCEF
:10006E00C0E0C398F8603B94186008400DD0E0FBE8
:10007E00020338E4FBFAC9FC8028E830E406E4C940
:10008E00FBE4CAFCE830E305E4C9CACBFCE854073C
:10009E006010F8C3E913F9EA13FAEB13FBEC13FC47
:1000AE00D8F130F52FC3E49CFCEF9BFFEE9AFEEDEA
:1000BE0099FDD0E0FBEF4E4D4C701222DB03020394
:1000CE005DEC2CFCEF33FFEE33FEED33FDED30E750
:1000DE00EB020338EF2BFFEE3AFEED39FDD0E0FBDD
:1000EE0050130BBB0003020360ED13FDEE13FEEF86
:0800FE0013FFEC13FC020338B0
:10010600EC4D6011E8497017ED33EC3304600DE4F3
:10011600FCFFFEFD22E933E8330470F802035612B1
:10012600032158046009E4CC2481500628500902B2
:10013600036028400302035DC0E0EB4A7044B980C7
:1001460006D0E0FB02034CEF4E701CBD8008EBFFAF
:10015600EAFEE9FD80EBE98DF0A4FEE5F00201EF91
:10016600E9CDF9EAFEEBFFEF89F0A4FCE5F0CE89D4
:10017600F0A42EFFE435F0CD89F0A42DFEE435F091
:100186008067EF4E7005BD80D780C3EF8BF0A4ACBF
:10019600F0EE8BF0A42CFCE435F0F8EF8AF0A42CFA
:1001A600E5F038FCE433CB8DF0A42CFCE5F03BF80D
:1001B600EE8AF0A42CFCE5F038F8E433CF89F0A4FD
:1001C6002CFCE5F038CF3400CE89F0A42FFFE5F003
:1001D6003EFEE433C98DF0A42EFEE5F039CD8AF05B
:1001E600A42FFFE5F03EFEE43DFD33D0E0FB5007D3
:1001F6000BBB000F020360EC2CFCEF33FFEE33FE6B
:06020600ED33FD02033898
:10020C00020360EC5D046005E859047003020356B8
:10021C00120321580460F6EC4860F2EC7004FDFE09
:10022C00FF22C860DB2481C85009C39860025006C5
:10023C0002035D9850CAF582E9294B4A7005AB82DE
:10024C0002034C75F0007C1A7880C3EF9BEE9AED9C
:10025C0099400DC3EF9BFFEE9AFEED99FDE842F03D
:10026C00DC23ACF0D0E0FFD0E0FED0E0FDAB822090
:10027C00E7101BEB60BAEC2CFCEF33FFEE33FEED1A
:10028C0033FD020338E803F830E705C0F075F000E1
:10029C00EF2FFFEE33FEED33FD40B830E7C280AAFE
:1002AC0075F020800E75F010800575F0087D007ECD
:1002BC00007F003392D530D503120620EC3340106A
:1002CC00EF33FFEE33FEED33FDEC33FCD5F0ED22D6
:0E02DC00E5F0247EA2D513CC92E7CDCEFF2212
:1002EA00EDD2E7CD33EC3392D524814006E4FFFE0C
:1002FA00FDFC22FCE4CFCECDCC24E0501174FF806B
:10030A00EDC3CC13CCCD13CDCE13CECF13CF047007
:07031A00F030D5DE020620E1
:100ADD0002035622EDA2E7D2E7F9EC3340F260F3C0
:100AED00B4FF08ED547F70E8020360F82481C2E082
:100AFD00C0E0F40428FAC313FCED92E7FD90001852
:100B0D0012067CEEA2E7E9BA7F02C313340094000B
:100B1D00FA75F091A4E5F013F494FE8AF0A433E590
:100B2D00F033248CD313FDE492E7FE7F007C3F75F8
:100B3D008302ECC0E0F8EDC0E0F9EEC0E0FAEFC0E2
:100B4D00E0FB8583F090001812064485F0831202B5
:100B5D000FD0E0FBD0E0FAD0E0F9D0E0F8120015AC
:100B6D00ED6480FD30E7011CD583C7ED33CC33F840
:0C0B7D00D0E0A2E71328C313CC13FD2224
:100B890090001812067C90001CE0F8A3E0F9A3E09D
:100B9900FAA3E0FB900018E0FCA3E0FDA3E0FEA3AC
:100BA900E0FF12020F12080890001812067C90004C
:100BB9001CE030E759900018E0FCA3E0FDA3E0FE3B
:100BC900A3E0FFECC0E0EDC0E0EEC0E0EFC0E0E480
:100BD900FFFEFDFC900018E0F8A3E0F9A3E0FAA3FA
:100BE900E0FB12036B7BDB600250087A0F794978CE
:100BF9004080067A0F794978C0D0E0FFD0E0FED076
:100C0900E0FDD0E0FC12001590001812067C90005F
:0D0C190018E0FCA3E0FDA3E0FEA3E0FF2235
:10032100E9D2E7C933E833F892D5EDD2E7CD33EC22
:0703310033FC5002B2D5229B
:10033800EC30E7100FBF000C0EBE00080DBD000426
:100348000BEB6014A2D5EB13FCED92E7FD2274FFD2
:10035800FCFDFEFF22E480F8A2D574FF13FC7D802B
:03036800E480EF3F
:10036B0074F8CC6480CCC86480C8F58204604FC339
:10037B00EB9FF5F0EA9E42F0E99D42F0E89C45F0D8
:10038B00603C501DE5825FFFE582D313CB5BCBF462
:10039B002B5582FB50280ABA002409B9002008808B
:1003AB001DE5825BFBE582D313CF5FCFF4C3132F25
:1003BB005582FF50090EBE00050DBD00010CC3EBAD
:1003CB009FF5F0EA9E42F0E99D42F0E89C45F06013
:0903DB0007CC4820E701B3EC2235
:1007E800BE1249253E4CCCCDBEAAAAAB3F80000024
:1007F8003E7ADBB03EED63383F24BC7D3F490FDBDA
:10080800ED33ECC2E7CC339200B4FF13ED547F60B4
:10081800030203567FDB7E0F7DC97C3F0208FDC2C1
:1008280001C3947F401E7007EDD2E794904015EF06
:10083800FBEEFAEDF9ECF87F007E007D807C3F123C
:10084800020FD201ED33EC33248430E705E4C0E035
:10085800806B04FAEDD2E754F0C333DAFD54073461
:10086800002323C0E0CCC0E0F8EDC0E0F9EEC0E022
:10087800FAEFC0E0FBE41202B6EC24FEFC90002084
:1008880012067C1201067B007A007980783F1200FC
:1008980015900020E0B2E7CCF0A3E0CDF0A3E0CEC5
:1008A800F0A3E0CFF0D0E0FBD0E0FAD0E0F9D0E060
:1008B800F812001590002012066012020F90002016
:1008C80012067C9007E874031203E49000201206D5
:1008D80060120106D0E0600F24F4F582E43407F5D5
:1008E8008312066C12001530010B7BDB7A0F79C975
:1008F80078BF120015ED33EC336006ECA20092E7E6
:02090800FC22CF
:1003E400C0E0EFFBEEFAEDF9ECF8120106D0E0F50F
:1003F400F0EFFBEEFAEDF9ECF8120650A3A3A3A379
:10040400E8C0E0E9C0E0EAC0E0EBC0E0C0F01201FF
:100414000612066CA3A3A3A3120015D0F0D0E0FB30
:0D042400D0E0FAD0E0F9D0E0F8D5F0D42215
:03000000020C26C9
:0C0C2600787FE4F6D8FD758120020C6D8B
:10043100E709F608DFFA8046E709F208DFFA803EAD
:1004410088828C83E709F0A3DFFA8032E309F6089A
:10045100DFFA8078E309F208DFFA807088828C8302
:10046100E309F0A3DFFA806489828A83E0A3F608B6
:10047100DFFA805889828A83E0A3F208DFFA804C90
:1004810080D280FA80C680D4806980F28033801067
:1004910080A680EA809A80A880DA80E280CA8033D0
:1004A10089828A83ECFAE493A3C8C582C8CCC58348
:1004B100CCF0A3C8C582C8CCC583CCDFE9DEE78018
:1004C1000D89828A83E493A3F608DFF9ECFAA9F097
:1004D100EDFB2289828A83ECFAE0A3C8C582C8CCED
:1004E100C583CCF0A3C8C582C8CCC583CCDFEADE06
:1004F100E880DB89828A83E493A3F208DFF980CC68
:1005010088F0EF60010E4E60C388F0ED2402B40460
:100511000050B9F582EB2402B4040050AF23234507
:06052100822390048173A7
:10052700BB010CE58229F582E5833AF583E0225089
:1005370006E92582F8E622BBFE06E92582F8E222D3
:0D054700E58229F582E5833AF583E49322ED
:10055400BB010689828A83F0225002F722BBFE0186
:02056400F32280
:10056600BC000BBE0029EF8DF084FFADF022E4CC79
:10057600F875F008EF2FFFEE33FEEC33FCEE9DEC42
:10058600984005FCEE9DFE0FD5F0E9E4CEFD22ED88
:10059600F8F5F0EE8420D21CFEADF075F008EF2FD2
:1005A600FFED33FD4007985006D5F0F222C398FDC3
:0505B6000FD5F0EA2260
:1005BB00A3F8E0C5F025F0F0E582158270021583F3
:0605CB00E0C838F0E82250
:1005D100E88FF0A4CC8BF0A42CFCE98EF0A42CFCC9
:1005E1008AF0EDA42CFCEA8EF0A4CDA8F08BF0A447
:1005F1002DCC3825F0FDE98FF0A42CCD35F0FCEBA6
:100601008EF0A4FEA9F0EB8FF0A4CFC5F02ECD396A
:0F061100FEE43CFCEAA42DCE35F0FDE43CFC22D7
:0E062000C3E49FFFE49EFEE49DFDE49CFC22EB
:10062E00EB9FF5F0EA9E42F0E99D42F0EC6480C843
:06063E0064809845F022E3
:0C064400E0FCA3E0FDA3E0FEA3E0FF2229
:10065000E493FC740193FD740293FE740393FF22F0
:0C066000E0F8A3E0F9A3E0FAA3E0FB221D
:10066C00E493F8740193F9740293FA740393FB22E4
:0C067C00ECF0A3EDF0A3EEF0A3EFF022F1
:0C103200EE30E707C3E49FFFE49EFE22BF
:100C3200020D21E493A3F8E493A34003F68001F2AA
:100C420008DFF48029E493A3F85407240CC8C333C3
:100C5200C4540F4420C8834004F456800146F6DF92
:100C6200E4800B0102040810204080900F15E47EFE
:100C7200019360BCA3FF543F30E509541FFEE49387
:100C8200A360010ECF54C025E060A840B8E493A34E
:100C9200FAE493A3F8E493A3C8C582C8CAC583CA79
:100CA200F0A3C8C582C8CAC583CADFE9DEE780BE31
:010F320000BE
:00000001FF
