:03156600020D373C
:10143D008F338D341214D47FD01213D9AF331213CE
:09144D00D9AF341213D9021516AF
:021364008F31C7
:101366001214D47FD01213D9AF311213D91214D458
:101376007FD11213D912133B8F32D2001214E3120B
:041386001516AF3257
:01138A002240
:101027007D807F6B12143D7F641214C4E4FD7F6BD7
:1010370012143D7F031214FE7F0212150A7F327EBF
:10104700001211B4E4FD7F3812143DE4FD7F6A12EB
:10105700143DE4FD7F2312143D7D807F3712143D3C
:101067007F75121364BF68157D017F6B12143DE411
:0D107700FD7F6C12143D7F327E001211B41B
:011084002249
:0C14FE00EF33333354F8FD7F1B02143D24
:0C150A00EF33333354F8FD7F1C02143D16
:10116B00E4FDC3EF94BCEE940040030D8036C3EF57
:10117B009462EE940040047D028029C3EF942AEE22
:10118B00940040047D03801CC3EF9414EE94004044
:10119B00047D04800FC3EF940AEE940040047D0598
:0911AB0080027D067F1A02143D4A
:0411B4008E318F32B7
:1011B800D3E53294E8E5319403400675310375327E
:1011C800E8C3E5329404E5319400500675310075A2
:1011D8003204AC31AD327E037FE81204B9EF14FD5E
:1011E8007F1912143DE531C313FEE53213FF0211D6
:0111F8006B8B
:0810D4008F408B418A428943E1
:1010DC001214D47FD01213D9AF401213D91214D4D6
:1010EC007FD11213D9E4F54412133BAB41AA42A9A8
:1010FC0043854482758300EF120485E544B40504EE
:10110C00D2008002C2001214E30544E544C39406E5
:05111C0040D60215168B
:0611F9008B318A328933BC
:1011FF007B007A00793A7F3B1210D4E53AFFE53B4A
:10120F00AB31AA32A933CF8FF01205A7E53CFFE52A
:10121F003DAB34AA35A936CF8FF01205A7E53EFFB7
:0E122F00E53FAB37AA38A939CF8FF00205A7EB
:0F14D400D2A0D2A1121560C2A0121560C2A1222F
:0C151600C2A0D2A1121560D2A002156084
:0E14E300A20092A0D2A1121560C2A102156053
:0D14F100D2A1121560A2A0C2A112156022A6
:0213D9008F453E
:1013DB00E4F546E54525E0F54592A0D2A11215604E
:1013EB00C2A11215600546E546C3940840E50214F8
:0113FB00F100
:10133B00E4F546D2A0F545E54625E0F546D2A112E7
:10134B001560A2A0E4334246C2A11215600545E523
:08135B0045C3940840E1AF46D0
:011363002267
:0F14B400E4F5241215460524E524C3940540F4FD
:0114C3002206
:081546007F047E71DEFEDFFA76
:01154E00227A
:0214C400AD0772
:0D14C600E4FCECC39D50061215460C80F5A9
:0114D30022F6
:0615600000000000002263
:08154F00020A0000020800007E
:060E67008B318A32893351
:100E6D00E4F539F53AF53BF53CF53DF53EF537F54D
:100E7D0038AB31AA32A9338538828537837406128F
:100E8D0005F312056FAEF0253AF53AEE3539F53921
:100E9D00AE37AF387C007D061204A7E92FF9EA3E84
:100EAD00FA90000212056FAEF0253CF53CEE353B95
:100EBD00F53B90000412056FAEF0253EF53EEE3584
:100ECD003DF53D0538E5387002053764044537704A
:100EDD00A0AE39AF3A7C007D0412050EAB34AA35B5
:100EED00A936EE8FF01205A7AE3BAF3C7C007D041A
:100EFD0012050EAB34AA35A936900002EE8FF01212
:100F0D0005C6AE3DAF3E7C007D0412050EAB34AA86
:0C0F1D0035A936900004EE8FF00205C6E6
:10127F00E4F5F01205A7900002E4F5F01205C69010
:10128F000004E4F5F01205C6900006740875F0002E
:10129F001205C6900008740875F0001205C690007C
:0912AF000A740875F0000205C67E
:060665008B318A3289335B
:10066B000509E50970020508D39432E508940040AA
:10067B004E750800750901E9240CF9E43AA801FC50
:10068B00AD03A9337E007F06120432AB31E5332470
:10069B0006F9E43532FAC003C002C001E533241277
:1006AB00F9E43532A801FCAD03D001D002D0037EB2
:1006BB00007F06120432AB31AA32A93312127FAB80
:1006CB0034AA35A936120544FFAEF0AB31AA32A9D4
:1006DB0033120544FDACF0D39FEE6480F8EC6480DC
:1006EB00984006AE04AF05800CAB34AA35A9361280
:1006FB000544FFAEF0AB31AA32A933EE8FF01205F1
:10070B00A7AB34AA35A93690000212056FFFAEF0E5
:10071B00AB31AA32A93390000212056FFDACF0D3B6
:10072B009FEE6480F8EC6480984006AE04AF0580C1
:10073B000FAB34AA35A93690000212056FFFAEF04D
:10074B00AB31AA32A933900002EE8FF01205C6AB83
:10075B0034AA35A93690000412056FFFAEF0AB3109
:10076B00AA32A93390000412056FFDACF0D39FEEB3
:10077B006480F8EC6480984006AE04AF05800FAB44
:10078B0034AA35A93690000412056FFFAEF0AB31D9
:10079B00AA32A933900004EE8FF01205C690000622
:1007AB0012056FFFAEF0AB34AA35A936120544FD26
:1007BB00ACF0C3EF9DEC6480F8EE6480985011AB05
:1007CB0031AA32A93390000612056FFFAEF08004F8
:1007DB00AE04AF05AB31AA32A933900006EE8FF011
:1007EB001205C6AB34AA35A93690000212056FFF6D
:1007FB00AEF0AB31AA32A93390000812056FFDACF5
:10080B00F0C39FEE6480F8EC6480985006AE04AFA2
:10081B0005800FAB34AA35A93690000212056FFF85
:10082B00AEF0AB31AA32A933900008EE8FF012056F
:10083B00C6AB34AA35A93690000412056FFFAEF093
:10084B00AB31AA32A93390000A12056FFDACF0C38D
:10085B009FEE6480F8EC6480985006AE04AF058080
:10086B000FAB34AA35A93690000412056FFFAEF01A
:0F087B00AB31AA32A93390000AEE8FF00205C606
:06088A008B318A32893334
:10089000E4F537120544FFAEF0AB34AA35A93612A1
:1008A0000544C39FFFE5F09EFEC3E49FFFE49EFE68
:1008B000D3EF9400EE648094804002802FAB31AA85
:1008C00032A933120544FFAEF0AB34AA35A9361273
:1008D0000544C39FFFE5F09EFED3EF9450EE648085
:1008E00094807E0040047F0180027F00EF4EAB3198
:1008F000AA32A933602A120544FF900006E5F08F62
:10090000F01205C6AB34AA35A936120544FFAB3147
:10091000AA32A933E5F08FF01205A7753701800ED2
:10092000120544FF900006E5F08FF01205C6AB31CA
:10093000AA32A93390000212056FFFAEF0AB34AAC1
:1009400035A93690000212056FC39FFFE5F09EFEA9
:10095000C3E49FFFE49EFED3EF9400EE6480948096
:1009600040028035AB31AA32A93390000212056FE4
:10097000FFAEF0AB34AA35A93690000212056FC362
:100980009FFFE5F09EFED3EF9450EE648094807E4E
:100990000040047F0180027F00EF4EAB31AA32A9F4
:1009A00033900002603012056FFF900008E5F08F71
:1009B000F01205C6AB34AA35A93690000212056FB5
:1009C000FFAB31AA32A933900002E5F08FF0120597
:1009D000C6753701800E12056FFF900008E5F08F95
:1009E000F01205C6AB31AA32A93390000412056F8C
:1009F000FFAEF0AB34AA35A93690000412056FC3E0
:100A00009FFFE5F09EFEC3E49FFFE49EFED3EF94BC
:100A100000EE6480948040028035AB31AA32A93365
:100A200090000412056FFFAEF0AB34AA35A93690E2
:100A3000000412056FC39FFFE5F09EFED3EF9450B4
:100A4000EE648094807E0040047F0180027F00EF8E
:100A50004EAB31AA32A933900004603012056FFF0B
:100A600090000AE5F08FF01205C6AB34AA35A9361E
:100A700090000412056FFFAB31AA32A93390000435
:100A8000E5F08FF01205C6753701800E12056FFF75
:0C0A900090000AE5F08FF01205C6AF37A9
:010A9C002237
:100A9D00E4F53990000612056FFFAEF0120544C360
:100AAD009FFFE5F09EFEC3E49FFFE49EFED3EF940F
:100ABD0000EE648094804002801390000612056F52
:100ACD00FFAEF0120544C39FFFE5F09EFE8E3A8FF8
:100ADD003B90000812056FFFAEF090000212056FFB
:100AED00C39FFFE5F09EFEC3E49FFFE49EFED3EFA0
:100AFD009400EE64809480400280169000081205E8
:100B0D006FFFAEF090000212056FC39FFFE5F09EE0
:100B1D00FE8E3C8F3D90000A12056FFFAEF09000E7
:100B2D000412056FC39FFFE5F09EFEC3E49FFFE433
:100B3D009EFED3EF9400EE64809480400280169068
:100B4D00000A12056FFFAEF090000412056FC39FEF
:100B5D00FFE5F09EFED3E53B953DE53C6480F8E571
:100B6D003A6480984020D3E53B9FEE6480F8E53AE7
:100B7D006480984011E53B9464E53A64809480402C
:100B8D0005753901805CD3E53D953BE53A6480F808
:100B9D00E53C6480984020D3E53D9FEE6480F8E508
:100BAD003C6480984011E53D9464E53C64809480FC
:100BBD004005753902802BD3EF953BE53A6480F8FB
:100BCD00EE648098401CD3EF953DE53C6480F8EED3
:100BDD00648098400DEF9464EE64809480400375BA
:040BED003903AF39E0
:010BF10022E1
:060BF2008B318A328933C9
:100BF800120A9DEF24FE6071147003020CD42402C3
:050C08006003020D3243
:100C0D00AB31AA32A93390001212056FFFAEF090EE
:100C1D00000C12056F2FFFE5F03EFE7C007D0212E9
:100C2D00050E8E378F38AB34AA35A93690000612D3
:100C3D00056FD39538E5376480F8E5F064809850FA
:100C4D0003020D32120544C39538E5376480F8E58B
:100C5D00F06480984003020D32050BE50B70020520
:040C6D000A020D3238
:100C7100AB31AA32A93390001412056FFFAEF09088
:100C8100000E12056F2FFFE5F03EFE7C007D021283
:100C9100050E8E378F38AB34AA35A936900008126D
:100CA100056FD39538E5376480F8E5F06480985096
:100CB10003020D3290000212056FC39538E53764C7
:100CC10080F8E5F06480985068050BE50B7002052B
:030CD1000A805E38
:100CD400AB31AA32A93390001612056FFFAEF09023
:100CE400001012056F2FFFE5F03EFE7C007D02121E
:100CF400050E8E378F38AB34AA35A93690000A1208
:100D0400056FD39538E5376480F8E5F06480984042
:100D14001D90000412056FC39538E5376480F8E52B
:0E0D2400F06480985008050BE50B7002050A7C
:040D3200AE0AAF0B4B
:010D3600229A
:100D3700E4F529F52A12102712148812141F12102D
:100D4700857B017A00792512127FE4F528E4FF12EA
:100D5700138B750A008F0B75340075350075362DAA
:100D670075370075380075392F7B007A00792B129B
:100D770011F990001FE52BF0A3E52CF0A3E52DF06A
:100D8700A3E52EF0A3E52FF0A3E530F090001FE0D8
:100D9700FEA3E0FFE52875F006A42406F582E434F7
:100DA70000F583EEF0A3EFF0900021E0FEA3E0FF53
:100DB700E52875F006A42408F582E43400F583EEEF
:100DC700F0A3EFF0E52875F006A4240AF582E434D1
:100DD70000F583E52FF0A3E530F00528E528C39457
:100DE700045003020D547534017535007536007BC8
:100DF700017A007906120E6775340175350075366C
:100E0700007B017A00792512066575340175350076
:100E17007536007B017A00793D12088A75340175B1
:100E2700350075363D7B017A007925120BF28E2944
:100E37008F2A900000E0FEA3E0FFA3E0FCA3E0FD03
:100E4700A3E0FAA3E0FB852937852A38121121ADE3
:100E57000BE4FF121456AF2AAE291212B8020D5135
:03000300020FB534
:100FB500C0E0C0F0C083C082C0D075D000C000C002
:0D0FC50001C002C003C004C005C006C00783
:100FD2001214B420B202B2A2E4FDFF12146F750A19
:100FE20000750B001214B47FC912152E75220075FC
:100FF20023007F2012153A0523E52370020522C340
:0A1002009407E5226480948040E822
:10100C00D007D006D005D004D003D002D001D00038
:0B101C00D0D0D082D083D0F0D0E032E2
:0C152200256400706C6F747465723A00F0
:10148800759850758920758780758DF4758BF4D2A1
:08149800AFD288D2A8D28E2247
:081558008F993099FDC2992220
:1012E5007546FF7547157548228E498F4A7B007AEA
:1012F500007939120062E4FE74392EF8E6FF6007C2
:0C1305001215580EBE0AF17F2002155888
:061311008B398A3A893B8A
:10131700E4FEAB39AA3AA93B8E82758300120458C2
:10132700FF60071215580EBE14E87F0D1215587F7F
:041337000A02155839
:101121008E318F328C338D348A358B367F7B12151D
:10113100587BFF7A157925121311AF32AE31121295
:10114100E57F2C121558AF34AE331212E57F2C1205
:101151001558AF36AE351212E57F2C121558AF383F
:0A116100AE371212E57F7D0215582B
:101456008F318D321214D47FA01213D9AF311213EB
:09146600D9AF321213D902151698
:02138B008F31A0
:10138D001214D47FA01213D9AF311213D91214D461
:10139D007FA11213D912133B8F32D2001214E31214
:0413AD001516AF3230
:0113B1002219
:0213FC008F263A
:1013FE00E4F527E52625E0F52692A0D2A112156088
:10140E00C2A11215600527E527C3940840E5021412
:01141E00F1DC
:10146F008F248D251214D47FA01213FCAF241213D6
:09147F00FCAF251213FC02151646
:1014A00025640046726565207465616D007374651E
:0414B00070733A001B
:10123D00C2A58B807F017E00121266D2A77F057E2C
:10124D0000121266C2A7EBC454F0F5807F017E0038
:09125D00121266D2A77F057E0083
:10126600D3EF9400EE9400400F7DC77C01DCFEDDD9
:08127600FAEF1F70EB1E80E887
:01127E00224D
:0C152E00AB07C2A7C2A612123DC2A72242
:0C153A00AB07C2A7D2A612123DC2A72226
:10141F007F3212152E7F2812152E7F0C12152E7F5C
:0E142F000612152E7F0112152E7F8002152E3B
:1010850078317C007D007BFF7A1479A37E007F0A8E
:10109500120432783B7C007D007BFF7A1479AD7EAB
:1010A500007F071204327F8312152EE4FA74312A69
:1010B500F8E6FF12153A0ABA09F37FC312152EE4B2
:0E10C500FA743B2AF8E6FF12153A0ABA06F34F
:0110D30022FA
:1012B8007546FF7547147548A08E498F4A7B007A9A
:1012C8000079311200627FC912152EE4FA74312AAE
:0C12D800F8E6FF600712153A0ABA05F1AB
:0112E40022E7
:03000000020F29C3
:0C0F2900787FE4F6D8FD758156020F7049
:10036200E709F608DFFA8046E709F208DFFA803E7D
:1003720088828C83E709F0A3DFFA8032E309F6086A
:10038200DFFA8078E309F208DFFA807088828C83D2
:10039200E309F0A3DFFA806489828A83E0A3F60886
:1003A200DFFA805889828A83E0A3F208DFFA804C60
:1003B20080D280FA80C680D4806980F28033801037
:1003C20080A680EA809A80A880DA80E280CA8033A0
:1003D20089828A83ECFAE493A3C8C582C8CCC58318
:1003E200CCF0A3C8C582C8CCC583CCDFE9DEE780E8
:1003F2000D89828A83E493A3F608DFF9ECFAA9F067
:10040200EDFB2289828A83ECFAE0A3C8C582C8CCBC
:10041200C583CCF0A3C8C582C8CCC583CCDFEADED5
:10042200E880DB89828A83E493A3F208DFF980CC37
:1004320088F0EF60010E4E60C388F0ED2402B40430
:100442000050B9F582EB2402B4040050AF232345D7
:0604520082239003B27347
:10045800BB010CE58229F582E5833AF583E0225059
:1004680006E92582F8E622BBFE06E92582F8E222A3
:0D047800E58229F582E5833AF583E49322BD
:10048500F8BB010DE58229F582E5833AF583E8F0AD
:10049500225006E92582C8F622BBFE05E92582C859
:0204A500F22241
:1004A700EF8DF0A4A8F0CF8CF0A428CE8DF0A42E69
:0204B700FE2223
:1004B900BC000BBE0029EF8DF084FFADF022E4CC27
:1004C900F875F008EF2FFFEE33FEEC33FCEE9DECF0
:1004D900984005FCEE9DFE0FD5F0E9E4CEFD22ED36
:1004E900F8F5F0EE8420D21CFEADF075F008EF2F80
:1004F900FFED33FD4007985006D5F0F222C398FD71
:050509000FD5F0EA220D
:10050E00C2D5EC30E709B2D5E4C39DFDE49CFCEE08
:10051E0030E715B2D5E4C39FFFE49EFE1204B9C3C3
:10052E00E49DFDE49CFC80031204B930D507C3E4BE
:06053E009FFFE49EFE2277
:10054400BB010A89828A83E0F5F0A3E02250068782
:10055400F009E71922BBFE07E3F5F009E319228944
:0B056400828A83E493F5F07401932277
:10056F00BB0110E58229F582E5833AF583E0F5F0CA
:10057F00A3E0225009E92582F886F008E622BBFEA7
:10058F000AE92582F8E2F5F008E222E5832AF583ED
:08059F00E993F5F0A3E99322B2
:1005A700BB010A89828A83F0E5F0A3F0225006F79F
:0F05B70009A7F01922BBFE06F3E5F009F319229C
:1005C600F8BB0111E58229F582E5833AF583E8F067
:1005D600E5F0A3F0225009E92582C8F608A6F02224
:0D05E600BBFE09E92582C8F2E5F008F2220B
:1005F300F5F0C582A4C582C5F0C583A42583F58320
:0106030022D4
:10000600E5522446F8E60552227843300702784640
:10001600E475F00112062F0206042000EB7F2ED2B3
:10002600008018EF540F2490D43440D4FF30040BD2
:10003600EF24BFB41A0050032461FFE55360021594
:10004600530556E5567002055530070D7843E4759D
:10005600F00112062FEF02061D0213B27403D20737
:100066008003E4C207F5528B438A448945E4F5537D
:10007600F555F556E55360077F2012004180F5756A
:1000860054FFC201C200C202C203C205C206C208B0
:1000960012000FFF700D3007057F00120052AF5699
:1000A600AE5522B4255FC2D5C20412000FFF24D07C
:1000B600B40A00501A75F00A785330D50508B6FF11
:1000C6000106C6A426F620D5047002D20380D924E0
:1000D600CFB41A00EF5004C2E5D204020252D20194
:1000E60080C6D20080C0D20280BCD2D580BAD205EA
:1000F60080B47F201200412002077401B5530040EE
:10010600F1120006FF12004102007AD208D20680E0
:1001160095120006FB120006FA120006F94A4B7009
:100126000679237A037BFF20022EE553602A7E00A0
:100136008E8275830012045860060EEE655470F0C8
:10014600C2D5EBC0E0EAC0E0E9C0E0EE120299D009
:10015600E0F9D0E0FAD0E0FB120604FF60AAEBC09B
:10016600E0EAC0E0E9C0E0120041D0E02401F9D0A5
:10017600E03400FAD0E0FBE5540460DCD554D980C5
:10018600877BFF7A027995D202809C79108002796A
:1001960008C206C2088008D2D5790A8004790AC244
:1001A600D5E554047002F554E4FAFDFEFF1200068C
:1001B600FC7B08200113120006FD7B1030000A129A
:1001C6000006FE120006FF7B20EC3382D592D55046
:1001D60013C3E43000069FFFE49EFEE42001039D66
:1001E600FDE49CFCE4CBF8C201EC700CCFCECDCC88
:1001F600E824F8F870F38017C3EF33FFEE33FEED13
:1002060033FDEC33FCEB33FB994002FB0FD8E9EBF3
:10021600300105F8D0E0C448B201C0E00AEC4D4E0A
:100226004F78207B0070C2EAB5540040BCC0E01293
:10023600029BD0F0D0E0200104C4C0E0C4B201C0EB
:10024600F012002AD0F0D5F0EB02007A12063F0138
:10025600175301915800E84C00E44201954F019D67
:0F02660044019D4900FD4301A3550187460187CF
:100275004501874703435000EC2D00F02E01132B59
:1002850000F423011120032C2A00AC480000010BC7
:100295003F3F3F00790AA2D5200314300509B91064
:1002A500020404B9080104A2D52006025001042065
:1002B50002689202B553005034C0E07F2030031924
:1002C5007F30A20272067205500F1202F2C202C2FC
:1002D50006C205C2087F30800F300503E9C0E01271
:1002E5000041300503D0E0F9D0E0B553CC30051717
:1002F5007F30B9100C1200417F583004077F788099
:1003050003B908031200413002057F2D0200417F29
:10031500202008F87F2B2006F322920280CF286E3A
:10032500756C6C2900D2011200063001F8C2017803
:100335005330D50108F60200AC2D50434958120040
:10034500062403B405004001E490033E93120032F5
:0D035500743A120032D20375530402019174
:100F3500021566E493A3F8E493A34003F68001F257
:100F450008DFF48029E493A3F85407240CC8C333BD
:100F5500C4540F4420C8834004F456800146F6DF8C
:100F6500E4800B010204081020408090154FE47EB8
:100F7500019360BCA3FF543F30E509541FFEE49381
:100F8500A360010ECF54C025E060A840B8E493A348
:100F9500FAE493A3F8E493A3C8C582C8CAC583CA73
:100FA500F0A3C8C582C8CAC583CADFE9DEE780BE2B
:011557000093
:10060400BB010689828A83E0225002E722BBFE02F4
:09061400E32289828A83E4932227
:10061D00BB010689828A83F0225002F722BBFE01BC
:02062D00F322B6
:10062F00FAE6FB0808E6F925F0F618E6CA3AF622CC
:10063F00D083D082F8E4937012740193700DA3A34A
:10064F0093F8740193F5828883E47374029368605E
:06065F00EFA3A3A380DF5E
:1013B200EFB40A07740D1213BD740A309811A8997C
:1013C200B8130CC2983098FDA899C298B811F6309B
:0713D20099FDC299F5992273
:00000001FF
