:100277005B7631365D5B74355DBBB6D3ADCAB9D33A
:10028700C3C2CCC9EEC6ECBDA2B5EA53594E36324D
:0F0297003838D3EFD2F4BACFB3C9C4A3BFE9004C
:1002CC000543FD000202FD0557FD000203FC054D30
:1002DC00FD000204FB0552FD000221DE0548FD0075
:0302EC000288770E
:10030700759850438920758BFD758DFDC2ABD28ED4
:05031700D2ACD2AF22C0
:080345008F993099FDC2992245
:0602A6008B408A418942F1
:1002AC00E4FEEEC39D5018AB400542E542AA4170F6
:0F02BC0002054114F912011CFF1203450E80E3E5
:0102CB002210
:0300230002034D88
:06034D00309802C2983254
:0801EE008F088B098A0A890BB6
:1001F600E4F53FFFFE12031C8F3E750CFDE4F50D82
:10020600E53E2403F50E750F01E508C454F04401DC
:10021600F510E4FEFF740C2FF8E6623F0FBF0001F5
:100226000EEF64054E70EEE4FEFFC3EF953EEE94CE
:10023600005016AB09AA0AA90B8F828E83120135CC
:10024600623F0FBF00010E80E1AF3E7E0078117C59
:10025600007D00AB09AA0AA90B1200F67411253E0F
:10026600F8A63F7B007A00790CE53E2406FD0202E3
:01027600A6E1
:060331008B5C8A5D895E11
:0E03370012031CAD07AB5CAA5DA95E0202A614
:10000300E4FDFCC3ED9FEC9E5015E4FAFB0BBB0033
:0F001300010AEB646E4A70F50DBD00010C80E42C
:0100220022BB
:1002F0001203077BFF7A0279777F021201EE7FE813
:070300007E0312000380ECF4
:0300000002016298
:0C016200787FE4F6D8FD75815E0201A9EB
:10002600E709F608DFFA8046E709F208DFFA803EBC
:1000360088828C83E709F0A3DFFA8032E309F608A9
:10004600DFFA8078E309F208DFFA807088828C8311
:10005600E309F0A3DFFA806489828A83E0A3F608C5
:10006600DFFA805889828A83E0A3F208DFFA804C9F
:1000760080D280FA80C680D4806980F28033801076
:1000860080A680EA809A80A880DA80E280CA8033DF
:1000960089828A83ECFAE493A3C8C582C8CCC58357
:1000A600CCF0A3C8C582C8CCC583CCDFE9DEE78027
:1000B6000D89828A83E493A3F608DFF9ECFAA9F0A6
:1000C600EDFB2289828A83ECFAE0A3C8C582C8CCFC
:1000D600C583CCF0A3C8C582C8CCC583CCDFEADE15
:1000E600E880DB89828A83E493A3F208DFF980CC77
:1000F60088F0EF60010E4E60C388F0ED2402B40470
:100106000050B9F582EB2402B4040050AF23234516
:06011600822390007673C5
:10011C00BB010689828A83E0225002E722BBFE02E1
:09012C00E32289828A83E4932214
:10013500BB010CE58229F582E5833AF583E022507F
:1001450006E92582F8E622BBFE06E92582F8E222C9
:0D015500E58229F582E5833AF583E49322E3
:10031C00E4FFFE12011C600C0FEF70010E09E97076
:05032C00F20A80EF223F
:10016E000202F0E493A3F8E493A34003F68001F2B5
:10017E0008DFF48029E493A3F85407240CC8C33392
:10018E00C4540F4420C8834004F456800146F6DF61
:10019E00E4800B01020408102040809002CCE47E23
:1001AE00019360BCA3FF543F30E509541FFEE49356
:1001BE00A360010ECF54C025E060A840B8E493A31D
:1001CE00FAE493A3F8E493A3C8C582C8CAC583CA48
:1001DE00F0A3C8C582C8CAC583CADFE9DEE780BE00
:0102EF00000E
:00000001FF
